:020000040C00EE
:100000000008FF1F01020008990200089902000879
:1000100099020008990200089902000800000000F7
:10002000000000000000000000000000990200082D
:1000300099020008000000009902000899020008D7
:100040009902000899020008990200089902000824
:1000500099020008D99C0208990200089902000838
:10006000E59C020800000000000000000000000005
:100070009902000800000000990200089902000897
:1000800099020008990200089902000899020008E4
:1000900099020008990200089902000899020008D4
:1000A000990200089902000800000000000000000A
:1000B0000000000000000000000000000000000040
:1000C0000000000000000000000000000000000030
:1000D0000000000000000000000000000000000020
:1000E00000000000000000009902000899020008CA
:1000F0009902000899020008990200089902000874
:100100009902000821960208990200089902000845
:1001100000000000000000000000000000000000DF
:1001200000000000000000000000000000000000CF
:100130009902000899020008990200089902000833
:1001400000000000000000000000000000000000AF
:10015000000000000000000000000000000000009F
:10016000000000000000000000000000000000008F
:1001700099020008990200089902000899020008F3
:1001800099020008990200089902000899020008E3
:1001900099020008990200089902000899020008D3
:1001A00099020008990200089902000899020008C3
:1001B00099020008990200089902000899020008B3
:1001C000000000000000000000000000000000002F
:1001D000000000000000000099020008000000007C
:1001E0009902000899020008990200089902000883
:1001F00099020008159602080000000000000000A7
:10020000DFF874D01D4880471D4C1E4DAC4209DA02
:1002100021686268A368043BA2BFC858D050FAE7BF
:100220000C34F3E7184B194CA34208DA19685A68E2
:100230000020043AA4BF8850FBE70833F4E71448D1
:100240008047144880470000DCA9020C0008FF1F0B
:10025000380D0000DCA9020C0008FF1F00000000A0
:100260003815FF1F58120000000000200000000099
:1002700000000020000000000008FF1F010002082D
:1002800048020008600200086002000878020008C6
:10029000359D0208B19C0208FEE70000FFFFFFFF4A
:1002A000FFFFFFFFFFFFFFFFFFFFFFFFFFFFFFFF5E
:1002B000FFFFFFFFFFFFFFFFFFFFFFFFFFFFFFFF4E
:1002C000FFFFFFFFFFFFFFFFFFFFFFFFFFFFFFFF3E
:1002D000FFFFFFFFFFFFFFFFFFFFFFFFFFFFFFFF2E
:1002E000FFFFFFFFFFFFFFFFFFFFFFFFFFFFFFFF1E
:1002F000FFFFFFFFFFFFFFFFFFFFFFFFFFFFFFFF0E
:020000040C02EC
:1000000098B500AF054A4FF0005314460FCB84E873
:100010000F0009F063FB09F0DFFB98BDC4FF00206F
:1000200080B584B000AF2F4BDB6803F48033002B26
:100030003ED02D4BDB6803F00103002B02D02B4B8D
:10004000FB6002E009F0AAFBF860274B1B6803F095
:100050000403002B20D0244B9B6803F070631B0E1D
:100060000133BB60204B9B6803F4FE431B0A013342
:100070007B601D4B9B6803F4FE031B0C01333B604C
:10008000BB683A6802FB03F3FA68B2FBF3F37A68E1
:1000900002FB03F3FB600DE0134B9B6803F07F034F
:1000A00001333B60FA683B68B2FBF3F3FB6001E0AD
:1000B0000E4BFB600B4BDB68DBB20133FA68B2FB23
:1000C000F3F3FB60074B1B6903F001030133FA688C
:1000D000B2FBF3F3FB60064AFB6813601037BD46C2
:1000E00080BD00BF004600501047005000366E0132
:1000F000C0FF002080B483B000AF0346FB800C3704
:10010000BD465DF8047B704780B400AF00231846FD
:10011000BD465DF8047B704780B400AF00231846ED
:10012000BD465DF8047B704780B483B000AF786053
:10013000002318460C37BD465DF8047B704700BFAE
:1001400080B400AF00231846BD465DF8047B7047BD
:1001500080B400AF00231846BD465DF8047B7047AD
:1001600080B400AF00231846BD465DF8047B70479D
:1001700090B589B000AF786039600023FB8300231D
:10018000BB8300237B8300233B8300233B6100234D
:10019000FB810023BB600023FB8200233B833CE008
:1001A0003B8B4E4A5B0013445B88184603F032FEDB
:1001B00038613B69002B28D03B699B691B88FB8118
:1001C0000023FB821CE03B699C69FB8ADBB20133A4
:1001D000DBB21846396904F09FF80346DB089BB28E
:1001E0005B089BB25B002344BB60BB681B689BB28F
:1001F000DBB29AB27B8B13447B83FB8A0133FB8295
:10020000FA8AFB899A42DED304E000237B8325230C
:10021000FB8307E03B8B01333B83304B1B883A8BDE
:100220009A42BDD37B8B0733DB107B83FB8B002B88
:1002300044D100233B833CE03B8B294A5B001344C1
:100240005B88184603F0E6FD38613B69002B28D037
:100250003B699B691B88FB810023FB821CE03B6997
:100260009C69FB8ADBB20133DBB21846396904F0C2
:1002700053F80346DB089BB25B089BB25B00234448
:10028000BB60BB681B689BB2DBB29AB2BB8B1344EA
:10029000BB83FB8A0133FB82FA8AFB899A42DED355
:1002A00004E00023BB832423FB8307E03B8B013363
:1002B0003B830B4B1B883A8B9A42BDD3BB8B0733D6
:1002C000DB10BB837B68BA8B1A803B687A8B1A8001
:1002D000FB8B18462437BD4690BD00BF6808FF1F42
:1002E0006C08FF1F80B582B000AF78607868034962
:1002F0000A2209F065FD0837BD4680BD7208FF1F60
:1003000080B582B000AF7860034879680A2209F0AE
:1003100057FD0837BD4680BD7E08FF1F80B500AF82
:100320000248034909F0FAFB80BD00BF7C08FF1FAB
:100330007008FF1F80B582B000AF78600B467B80ED
:1003400013463B807B8803F1A84303F580333A884A
:100350007868194609F034FD0837BD4680BD00BFF6
:1003600080B584B000AFBA607B600346FB810B466A
:100370007B73FB8941F2F802934201D00B2316E014
:100380003B7E002B01D0052311E07B7B002B01D0AD
:1003900011230CE0BB68082B01D90F2307E000F004
:1003A0000DF878680449BA6809F00AFD0023184678
:1003B0001037BD4680BD00BF3815FF1F80B582B025
:1003C00000AF204B1B78002B2FD01F4BD3E900230D
:1003D00013467B601D4B1B687B601B4BD3E90023DE
:1003E0004FF000004FF0FF3100EA020001EA030184
:1003F0007B681A464FF0000342EA000243EA010319
:100400001149C1E90023124B1B687A689A4208D24D
:100410000D4BD3E90023003243F101030A49C1E93E
:1004200000230B4A7B68136005E007484FF4116115
:100430000822FFF77FFF074B00221A600837BD46EE
:1004400080BD00BFF825FF1F3815FF1F100901549C
:100450006425FF1F6825FF1F80B400AF034B1B6896
:100460001846BD465DF8047B704700BF4415FF1F6A
:1004700080B400AF144B5B8D002B05D1124B1A8D4D
:10048000124B1B899A4204D90F4B012283F840205A
:1004900003E00D4B002283F840200D4B5B8D002BB9
:1004A00005D10B4B1A8D094B1B899A4204D9084B75
:1004B000012283F8402003E0054B002283F840200E
:1004C000BD465DF8047B7047F026FF1FE413FF1F55
:1004D000AC26FF1F80B582B000AF434B20221A80AC
:1004E000414B00225A80404B00225A603E4B44F25E
:1004F0001F029A813C4B3D4A1A613B4B00225A61D4
:10050000394B00229A83384B00221A62364B002264
:100510001A85354B00225A85334B002283F8402040
:10052000334B20221A80324B00225A802E4B5B68BC
:100530002F4A53602C4B9A892D4B9A812C4B2B4A76
:100540001A612B4B00225A61294B00229A83284BB7
:1005500000221A62264B00221A85254B00225A855A
:10056000234B002283F84020224B00221A7000F017
:1005700051F90346FB80FB88002B01D000F00AF9FB
:100580001D4B00221A701D4B00221A701C4B0022BA
:100590001A801C4B00221A701B4B00221A601B4B46
:1005A00000221A601A4B00221A601A4B00221A60AD
:1005B00000233B60184B1B683B603B6803F008035B
:1005C000002B03D0154B00221A7006E0134B0122BA
:1005D0001A70134B1B68134A1360134B4FF47A6263
:1005E0001A600837BD4680BDF026FF1F48E80100AD
:1005F000AC26FF1F3427FF1F5427FF1F5527FF1F5F
:100600008627FF1F8827FF1F6427FF1F4027FF1F24
:100610005027FF1F6827FF1F08000154F825FF1F00
:10062000100901546425FF1F6825FF1F80B485B0A1
:1006300000AF78607B68002B62D0354B1B68002BC5
:100640000CD1334A7B681360314B1B6800225A601F
:100650002F4B1B6800221A60002352E02C4B1B68B2
:100660001A897B681B899A420FD97B6800221A601D
:10067000274B1A687B685A60254B1B687A681A609A
:10068000234A7B68136000233BE0214B1B68FB601F
:1006900033E0FB681A897B681B899A4201D10123E8
:1006A0002FE0FB681A897B681B899A4213D9FB6883
:1006B0001A687B681A607B68FA685A60FB681B6876
:1006C000002B03D0FB681B687A685A60FB687A6865
:1006D0001A60002315E0FB685B68002B0AD1FB68F9
:1006E0007A685A607B68FA681A607B6800225A60F0
:1006F000002306E0FB685B68FB60FB68002BC8D149
:10070000012318461437BD465DF8047B704700BFCF
:100710004415FF1F80B487B000AF0346FB801C4B1D
:100720001B687B612BE07B691B89FA889A4223D185
:100730007B691B683B617B695B68FB603B69002BE5
:1007400002D03B69FA685A60FB68002B02D0FB6854
:100750003A691A607B6900221A607B6900225A603C
:100760007B691A890A4B1B681B899A4203D1084A84
:10077000FB68136006E005E07B695B687B617B6971
:10078000002BD0D11C37BD465DF8047B704700BFFD
:100790004415FF1F80B582B000AF0C4B1B687B6017
:1007A00000237B8009E07B681B897B807B685B681A
:1007B0007B607B881846FFF7ADFF7B68002BF2D18A
:1007C000024B00221A600837BD4680BD4415FF1F4A
:1007D00080B584B000AF78600023FB817B68BB608C
:1007E0000CE0B868FFF722FF0346FB81FB89002B72
:1007F00001D0FB8909E0BB682833BB60BB681B895B
:100800004FF6FF729342ECD1FB8918461037BD4674
:1008100080BD00BF80B582B000AF0023FB800B4BD2
:1008200000221A600A48FFF7D3FF0346FB80FB88CB
:10083000002B01D0FB8805E00648FFF7C9FF0346FF
:10084000FB80FB8818460837BD4680BD4415FF1F56
:10085000040AFF1F9008FF1FB0B584B002AF002349
:10086000FB712F4B1B68002B57D02D4B1C682D4B59
:1008700018882D4B19782D4B1A682D4B1D682D4B60
:100880001B7800932B46A0470346FB71FB79FF2B97
:1008900043D0294B1B78013B032B29D801A252F8E6
:1008A00023F000BFCD080208B5080208DB080208E3
:1008B000DB080208214B1B68002B07D01F4B1B686D
:1008C000184609F065FA1D4B00221A60FB7918469C
:1008D0000021002205F07EFA0AE0144B1A68144B3E
:1008E0001B68F979084611461A4605F073FA00BFED
:1008F000114B00221A700B4B00221A800A4B002267
:100900001A700A4B00221A60094B00221A60094B28
:1009100000221A70024B00221A600837BD46B0BD93
:100920005027FF1F8627FF1F8827FF1F6427FF1FF1
:100930004027FF1F5527FF1F5427FF1F6827FF1F52
:1009400080B400AF044BD3F820329BB21846BD46AA
:100950005DF8047B704700BF0000015480B582B091
:1009600000AF78600B467B8013463B807B8803F1A9
:10097000A84303F580333A887868194609F020FACD
:100980000837BD4680BD00BF80B582B000AF78603B
:100990000B467B8013463B807A883B8878681146FB
:1009A0001A46FFF7DBFF0837BD4680BD80B582B031
:1009B00000AF78600B467B8013463B807B8803F159
:1009C000A84303F580333A881846796809F0F8F9A6
:1009D0000837BD4680BD00BF80B582B000AF7860EB
:1009E0000B467B8013463B807A883B8878681146AB
:1009F0001A46FFF7DBFF0837BD4680BD80B500AF64
:100A0000FFF79EFF0346184680BD00BF80B500AFCC
:100A1000FFF7F4FF0346184680BD00BF80B582B0E3
:100A200000AF00237B60FFF7F1FF03467B801B4B89
:100A30009B8B03F00103002B05D1194B9B8B03F01B
:100A40000103002B03D0002000F046F97860154820
:100A5000FFF748FC144B1A88144B1B8811481146A9
:100A60001A46FFF7B9FF0D4B9B8B03F00103002BD8
:100A700005D10B4B9B8B03F00103002B0BD0786847
:100A800000F02AF97860064B5A697B689A4202D2D4
:100A9000034A7B6853610837BD4680BDF026FF1FBF
:100AA000AC26FF1FAC25FF1F1626FF1FFE25FF1FCC
:100AB00080B582B000AF00237B60214B9B8B03F09D
:100AC0000103002B05D11F4B9B8B03F00103002B6F
:100AD0000ED0002000F000F978601B4A7B6813609C
:100AE0001A4B01221A701A4B00221A6000F0B4F857
:100AF000184B1A88184B1B88184811461A46FFF7DE
:100B000043FF1648FFF7FCFB0D4B9B8B03F00103E3
:100B1000002B05D10B4B9B8B03F00103002B0BD05B
:100B2000786800F0D9F87860054B5A697B689A427A
:100B300002D2034A7B6853610837BD4680BD00BFBF
:100B4000F026FF1FAC26FF1FA825FF1F7025FF1FE3
:100B50008C25FF1FDE25FF1FD225FF1F9025FF1FBD
:100B600080B500AF324B1B78002B0DD0314B1B886A
:100B70001BB2002B08DD2F4B1B889BB29BB2013BA5
:100B80009BB29AB22B4B1A8002F0DCF92A4B1B88DD
:100B9000002B18D0294B1B8801339AB2274B1A809F
:100BA000254B1A88254B1B889A420CD8224B0022D1
:100BB0001A80224B00221A80214B1B68002B02D086
:100BC0001F4B1B6898471F4B1B7883F00103DBB258
:100BD000002B11D11C4BD3E900234FF0FF304FF015
:100BE000000102EA000203EA010318484FF0000185
:100BF000994208BF90420CD3134BD3E90023144809
:100C00004FF00001121843EB01030F49C1E9002323
:100C100007E00C4B1B78002B03D00E4B4FF47A628D
:100C20001A600C4B1B6801330A4A136080BD00BF79
:100C3000FC25FF1F0626FF1FC425FF1F9C25FF1F45
:100C40006C25FF1FF825FF1F3815FF1F40FBE1FF34
:100C500040420F006825FF1F80B500AF1A4B1B787C
:100C600083F00103DBB2002B2DD0184B1B68002B47
:100C700023D0164B1B68184600F02EF80246134B83
:100C80001A60134B5B68002B05D0114B5A680F4B51
:100C90001B689A4203D90D4B1B680D4A53600D4BDC
:100CA0005B68002B05D00B4B5A68084B1B689A42B7
:100CB00003D9064B1B68074A5360002000F00CF86C
:100CC0000246024B1A6080BD0826FF1F7425FF1FD5
:100CD000F026FF1FAC26FF1F80B485B000AF786000
:100CE0000023BB600023FB60154B1B68BB60BB6827
:100CF000002B0DD07A68BB689A4204D8BA687B682A
:100D0000D31AFB6004E0BA687B68D31A013BFB602E
:100D10007B68002B0CD00B4B1A68FB689A4205D2FB
:100D2000084B1B68FA68D31AFB6001E00023FB60E4
:100D3000FB6818461437BD465DF8047B704700BF5A
:100D4000100901548425FF1F80B582B000AF454BC8
:100D50001B78002B00F08180FFF758FE0346FB80D4
:100D6000FB8803F48063002B39D03F4B1B78002BAA
:100D700006D03E4B1B78002B02D03D4B00221A8040
:100D80003C4B1B8D002B05D03A4B1B8D013B9AB27F
:100D9000384B1A85374B1A8D374B1A85374B012242
:100DA0001A70374B1B78002B02D0FFF781FE16E03C
:100DB000344B1B8803F1A84303F580331B78DAB268
:100DC000314B1A702F4B1B881A46304B1B8813442B
:100DD0001A462F4B13441B78DAB22B4B1A70254B53
:100DE0005B88012B01D100F031FA2A4B1B78002BD4
:100DF00009D0214B5B88012B03D01F4B5B88222B32
:100E000001D1FFF70BFEFFF701FE0346FB80FB88D5
:100E100003F48063002B20D0164B5B8D01339AB214
:100E2000144B5A85134B5A8D134B5A85154B1B88FF
:100E300003F1A84303F580331B78DAB2124B1A7022
:100E4000104B1B881A46114B1B8813441A46104B33
:100E500013441B78DAB20C4B1A70FFF709FB083702
:100E6000BD4680BD0F26FF1FEC25FF1F0826FF1F74
:100E70001226FF1FF026FF1FAC26FF1F0426FF1FB0
:100E80000926FF1FDE25FF1FE825FF1FD225FF1FB4
:100E9000FFFF00540E26FF1F80B582B000AF484B05
:100EA00000221A80474B1B78002B00F08380464BB2
:100EB0001B78002B05D0454B1B8801339AB2434B5E
:100EC0001A80434B1B88002B5BD0424B1A88404B47
:100ED0001B889A4223D9404B1B88002B0BD03F4BD9
:100EE0001A8D3F4B1B899A4205D83C4B1B8D03330F
:100EF0009AB23A4B1A853B4B1B88002B0FD0364BCE
:100F00001B88002B0BD1384B1A8D354B1B899A420D
:100F100005D8354B1B8D03339AB2334B1A852E4BB4
:100F20001B88002B21D12F4B1B88002B1DD0FFF7D6
:100F30006DFD0346FB80FB8803F40063002B0CD19E
:100F4000244B1A88224B1B889A420DD8214B1B88B0
:100F500001339AB21F4B1A8013E01E4B00221A80F5
:100F6000214B00221A850CE00BE01A4B1A88184B13
:100F70001B889A4205D8174B1B8801339AB2154B30
:100F80001A8000F063F9104B1B78002B12D0174B1E
:100F90001B88002B0ED0154B1A880C4B1B889A42CD
:100FA00008D1FFF73BFD114B1B88012B02D1074BEA
:100FB00000221A80FFF75CFA0837BD4680BD00BFEB
:100FC000D625FF1F0826FF1F0E26FF1FDA25FF1F4D
:100FD0000026FF1F1226FF1FD225FF1FF026FF1F2E
:100FE000E413FF1FFE25FF1FAC26FF1FFA25FF1F7E
:100FF00080B500AF0A4B00221A800A4B1B78002BE9
:1010000009D0094B5B88032B05D1084B1B88002BAB
:1010100001D1FFF703FD064B00221A8080BD00BFFF
:101020000A26FF1F0E26FF1FAC26FF1FFA25FF1FF3
:10103000DA25FF1F80B586B000AF0023FB81364B59
:10104000364A1A60364B00221A60364B00221A606C
:10105000354B00221A60354B00221A60344B0022B7
:101060001A6002F051F8FFF735FA324B01221A707C
:10107000314B00221A70314B00221A60304B002293
:101080001A60304B00221A600023BB6000237B6192
:1010900000233B6126E02C4B1B68BB602A4B1B687E
:1010A0003B61BA683B699A4204D83A69BB68D31A73
:1010B0003B6104E03A69BB68D31A013B3B61214BB9
:1010C0001B68002B03D11F4A3B69136007E01D4BCF
:1010D0001A683B699A4202D91A4A3B6913607B69D4
:1010E00001337B617B69B3F57A7FD4D30023FB8026
:1010F000164B1B88FB80FB8803F04003002B03DDAD
:10110000134B08221A8002E0114B04221A80FB893B
:1011100018461837BD4680BDB825FF1FE40BFF1FDA
:101120007825FF1F7C25FF1FC025FF1F6C25FF1F93
:10113000A025FF1F4815FF1F7025FF1F7425FF1FE7
:10114000A825FF1F8425FF1F100901540205015423
:101150009E25FF1F80B582B000AF334B1B7883F014
:101160000103DBB2002B00D05AE0304B1B7883F038
:101170000103DBB2002B06D12D4B1B7883F001035A
:10118000DBB2002B38D02B4B1B7883F00103DBB292
:10119000002B31D0254B1B7883F00103DBB2002BF1
:1011A0001ED0FFF72BFC0346FB80FB8803F4806313
:1011B000002B09D01E4B01221A701F4B1B78002BED
:1011C0000ED0FFF775FC0BE01C4B1B88002B07D1E2
:1011D000FB8803F40063002B02D0154B01221A7028
:1011E00008F038FA00F032F8154B1B78002B01D0CC
:1011F000FFF714FC08F020FA124B1B68B3F57A6F66
:1012000001D3FFF7DBF802F027F8FFF725FB01F029
:1012100027FF0D4B1B68002B02D00B4B1B68984718
:101220000837BD4680BD00BF4815FF1F0F26FF1FB2
:101230000426FF1F0826FF1F0926FF1FD225FF1FB8
:101240000E26FF1F6825FF1FA025FF1F80B500AFDA
:101250000A4B9B8B03F00103002B05D1084B9B8BA2
:1012600003F00103002B05D0064B1B88002B01D196
:10127000FFF7F2FCFFF752F880BD00BFF026FF1F1A
:10128000AC26FF1FD225FF1F80B588B000AF00231A
:10129000FB820023FB838E4B1B88FB83FB8B1BB2E3
:1012A000002B80F21281FB8B03F4E0633B61894BDE
:1012B0001B68BB61FB8B23F4E043FB833B69B3F505
:1012C000807F0DD0B3F5807F03D8002B00F0F48031
:1012D000EDE0B3F5007F33D0B3F5806F61D0E6E089
:1012E0007D4B1B68002B0DD07B4B1B68B869984762
:1012F0000346FB82FB8A002B21D0FB8B43F4005377
:10130000FB83DAE0BB69B3F5006F13D8734B1B683E
:10131000002B0FD0714B1B68FB60BB695B00FA6848
:101320001A446F4B1B8810464FF4A1611A46FFF711
:101330003DFB04E0FB8B43F40053FB83BDE0BCE0CA
:10134000684B1B68002B0DD0664B1B68B86998472B
:101350000346FB82FB8A002B1ED0FB8B43F4005319
:10136000FB8319E0BB69B3F5006F11D85B4B1B68B9
:10137000002B0DD0594B1B68BB60BB695B00BA6882
:10138000134418464FF4A1610222FFF7E7FA03E085
:10139000FB8B43F40053FB83534B4FF47A721A8058
:1013A0008BE04F4B1B88082B50D1BB69B3F5006F06
:1013B00004D9FB8B43F40053FB8346E0464B1B6888
:1013C000002B0DD0444B1B68B86998470346FB823D
:1013D000FB8A002B21D0FB8B43F40053FB8334E0CA
:1013E000BB69B3F5006F13D83C4B1B68002B0FD0C3
:1013F0003A4B1B687B60BB695B007A681A44384BC8
:101400001B8810464FF4A1611A46FFF7CFFA04E09B
:10141000FB8B43F40053FB8317E0FB8B23F4F04377
:10142000FB83FB8B7B802A4A7B881380284B1B889D
:10143000FB83FB8B03F4E0633B61264B1B68BB61C2
:101440003B69B3F5806FB0D030E02FE0274B1B68CD
:10145000002B11D0254B1B6898470346FB82FB8A63
:10146000002B04D0FB8B43F40053FB831EE0FB8B6B
:1014700023F40063FB8320E008F086F80346FB8238
:10148000FB8A002B03D1154B1B68002B04D1FB8B6F
:1014900043F40063FB8309E0154A104B1B681B896A
:1014A0001380FB8B23F40063FB8306E005E0FB8BDA
:1014B00043F40053FB8300E000BF0E4B00221A8070
:1014C000FB8B3B80024A3B8813802037BD4680BDA2
:1014D00002050154040501547825FF1FB825FF1F9C
:1014E0009E25FF1F7C25FF1FC425FF1FC025FF1F52
:1014F000080501549C25FF1F80B400AF044B002257
:101500001A60044B00221A80BD465DF8047B7047C8
:10151000C825FF1F5C27FF1F80B584B000AF78602F
:101520000023FB737B68DB881B0B9BB2013B072B03
:1015300021D801A252F823F07115020859150208AA
:10154000711502087115020871150208711502085B
:101550007115020865150208786804F053F903460E
:10156000FB730BE0786804F02DFD0346FB7305E088
:101570000423FB7302E00523FB7300BFFB7B1846CB
:101580001037BD4680BD00BF80B582B000AF786027
:10159000124B1B68002B09D0104B1B68184600210A
:1015A00002F084FA0D4B00221A6011E0802008F04E
:1015B000E7FB03467B607B68002B01D1072308E033
:1015C000786807490E2208F0FBFB786804F0FAFC03
:1015D000002318460837BD4680BD00BFC825FF1F41
:1015E0007027FF1F80B400AF044BD3F820329BB2AA
:1015F0001846BD465DF8047B704700BF00000154EB
:1016000080B582B000AF78600B467B8013463B808C
:101610007B8803F1A84303F580333A88786819463C
:1016200008F0CEFB0837BD4680BD00BF80B500AFD7
:10163000FFF7D8FF0346184680BD00BF80B584B0D1
:1016400000AF0346FB80084B1B88FB81FA89FB88AF
:101650001340FB8107F0FEFF034AFB89138007F06C
:10166000EBFF1037BD4680BD0402015480B584B045
:1016700000AF0346FB80084B1B88FB81FA89FB887F
:101680001343FB8107F0E6FF034AFB89138007F051
:10169000D3FF1037BD4680BD0402015480B483B02F
:1016A00000AF0023FB800C4B1B88FB80FB8803F4FE
:1016B0000063002B04DCFB8803F48053002B03DD64
:1016C000064B00221A7002E0044B01221A700C37FC
:1016D000BD465DF8047B7047020501544A15FF1FA3
:1016E00080B582B000AF0346FB71FB7903F58073D0
:1016F0009BB2DB009BB2054819460822FFF780FF2A
:10170000024B18460837BD4680BD00BFF025FF1FBD
:1017100080B485B000AF0346FB7101237B73FB7976
:101720009BB2DB009BB203F60703FB81FB8903F14D
:10173000A84303F580337A7BD2B21A70FB8903F198
:10174000A84303F580331B78DBB27B737B7BDBB272
:1017500003F00103002BF1D01437BD465DF8047B84
:10176000704700BF80B485B000AF0346FB71002313
:101770007B73FB799BB2DB009BB203F60703FB8113
:10178000FB8903F1A84303F580337A7BD2B21A7048
:10179000FB8903F1A84303F580331B78DBB27B732D
:1017A0007B7BDBB203F00103002BF1D11437BD4684
:1017B0005DF8047B704700BF80B586B000AF03467C
:1017C000FB710023BB750023BB8200237B829F4BF0
:1017D0001B8842F6FE72934211D99C4B1B8842F63D
:1017E000FE7293420BD9994B1B8842F6FE729342CC
:1017F00005D9964B1B8842F6FE72934201D81423FA
:10180000A5E10020FFF76CFFF860FB689A78DB78B1
:101810001B021343BB82FB681A785B781B021343DD
:101820007B82FB689B7903F00103002B02D1162316
:10183000BB752AE0FB681B7903F00C03042B02D074
:101840001623BB7521E0FB681B7903F00203002B14
:1018500002D11623BB7518E0BB8A232B02D81623AE
:10186000BB7512E0BB8A802B02D91623BB750CE036
:101870007B8AB3F5805F02D21623BB7505E07B8AB5
:10188000B3F5405F01D31623BB75BB7D002B43D15D
:101890000120FFF725FFF860FB689A78DB781B02D0
:1018A0001343BB82FB681A785B781B0213437B826D
:1018B000FB689B7903F00103002B02D11623BB7553
:1018C0002AE0FB681B7903F00C03002B02D01623DF
:1018D000BB7521E0FB681B7903F00203002B02D1EA
:1018E0001623BB7518E0BB8A232B02D81623BB75C1
:1018F00012E0BB8A802B02D91623BB750CE07B8AD1
:10190000B3F5805F02D21623BB7505E07B8AB3F581
:10191000405F01D31623BB75BB7D002B71D1FB79D2
:10192000032B6ED94A4B01221A700320FFF7D8FE11
:10193000F860FB689A78DB781B021343BB82FB6874
:101940001A785B781B0213437B82FB689B7903F058
:101950000103002B05D0BB8A002B02D10423BB75E9
:101960004AE0FB689B7903F00103002B3BD0394B25
:101970001B88BA8A9A4206D1364B1B88002B02D0AC
:10198000BB8A0C2B02D90323BB7535E0FB681B799E
:1019900003F00C03002B23D12F4B1B78022B07D114
:1019A0007B8AB3F5805F03D37B8AB3F5405F08D3AE
:1019B000294B1B78022B0FD0284B1B887A8A9A421E
:1019C0000AD1FB681B7903F00203002B03D0204BE4
:1019D00000221A7003E002E00223BB750CE00BE06A
:1019E0000423BB7508E0BB8A002B03D1194B1B886D
:1019F000002B01D00323BB75BB7D002B01D01E2320
:101A0000BB75BB7D002B40F08A80FB79022B40F236
:101A100086800220FFF764FEF860FB689A78DB7826
:101A20001B021343BB82FB681A785B781B021343CB
:101A30007B82FB689B7903F00103002B10D0BB8AEB
:101A4000002B0DD10423BB7564E000BF0226FF1FED
:101A5000CC25FF1FFE25FF1FD125FF1F1626FF1FC8
:101A6000FB689B7903F00103002B4AD03A4B1B889B
:101A7000BA8A9A4241D1384B1B88002B3DD0BB8A91
:101A80000C2B3AD8FB681B7903F00C03042B30D1E4
:101A9000324B1B78022B07D17B8AB3F5805F03D3CF
:101AA0007B8AB3F5405F08D32C4B1B78022B1CD0EC
:101AB0002B4B1B887A8A9A4217D1FB681B7903F05B
:101AC0004003002B03D0274B01221A7002E0254B64
:101AD00000221A70FB681B7903F00203002B03D06D
:101AE000214B00221A7003E002E00223BB7503E0E1
:101AF00002E00423BB7503E002E00323BB7509E0A9
:101B000008E0BB8A002B03D1134B1B88002B01D0AC
:101B10000323BB75BB7D002B01D01D23BB75BB7D93
:101B2000002B13D1FB79FB750BE0FB7D1846FFF70B
:101B3000D7FDF860FB689A790C4B1A70FB7D013376
:101B4000FB750B4B1B78FA7D9A42EED3BB7D184692
:101B50001837BD4680BD00BFD225FF1FD125FF1F0E
:101B6000DE25FF1F1026FF1FCC25FF1F4915FF1F75
:101B70001426FF1F80B58EB000AF0023BB85002365
:101B80007B8500237B6200233B62002387F837308C
:101B90000323BB8603237B8600233B860023FB8530
:101BA0004FF6FF73FB839E4B9A89FB8B1340FB839D
:101BB0009C4B9A89FB8B1340FB839B4B00221A8022
:101BC0009A4B00221A700220FFF78AFDB861BB69A8
:101BD0001B889AB2964B1A80BB691B7903F00203EB
:101BE000002B01D001237B860320FFF779FDB8612C
:101BF000BB691B889AB28F4B1A80BB691B7903F0B3
:101C00000203002B01D00123BB868A4B1B881A4696
:101C1000894B1B881946BB8E03FB01F31344874A8B
:101C2000128893420ADD834B1B881A46834B1B881C
:101C30001946834B1B880B449A4218DB7D4B1B884B
:101C40001A467D4B1B881946BB8E03FB01F31344D8
:101C50007C4A128893420CDD764B1B881A46794BDE
:101C60001B881946784B1B880B449A4201DA1E23C5
:101C700025E36F4B1B881A46744B1B8819467B8ED5
:101C800003FB01F313446D4A128893420ADD684B4B
:101C90001B881A46694B1B881946694B1B880B44E5
:101CA0009A4231DB624B1B881A46684B1B881946E7
:101CB0007B8E03FB01F31344624A128893420ADDD0
:101CC0005B4B1B881A465F4B1B8819465E4B1B8873
:101CD0000B449A4218DB564B1B881A465B4B1B88F9
:101CE00019467B8E03FB01F31344524A1288934238
:101CF0000CDD4F4B1B881A464E4B1B8819464E4B2A
:101D00001B880B449A4201DA1D23D8E2504B1B7802
:101D1000FB75504B1B687B624F4B1B683B62404B13
:101D20005B883B863F4B5B88FB85FB7D03F00903AB
:101D3000002B5CD0FB7D03F00603002B01D1302388
:101D4000BDE2FB7D03F00203002B06D1FB7D03F017
:101D50000403002B01D03023B1E2FB8B002B15D004
:101D6000FB8B03F00403002B04D1FB7D03F0020383
:101D7000002B09D1FB8B03F00803002B06D1FB7D60
:101D800003F00403002B01D0302398E2334B3B6176
:101D9000234B1B693B617B6A002B09D07A6A3B6944
:101DA0009A4203D37B6A2E4A934201D9362386E2B4
:101DB000FB7D03F00203002B0ED0FB7D03F0040338
:101DC000002B09D03B6A002B06D03A6A7B6A9A4204
:101DD00002D3012387F8373097F83730002B06D02D
:101DE000FB8B03F01003002B01D1302367E21D4B66
:101DF0001B78002B52D0FB7D03F00903002B33D15D
:101E00003B8E022B09D03B8E032B06D0FB8D022B81
:101E100003D0FB8D032B40F0858030234FE200BFC1
:101E2000F026FF1FAC26FF1FEA25FF1F0426FF1F19
:101E3000DE25FF1F1626FF1FFE25FF1F9A26FF1F08
:101E40009026FF1F8826FF1FA226FF1FD225FF1FF7
:101E500081090154A0090154A409015448E8010072
:101E6000000050C33427FF1FFB7D03F00403002B49
:101E700007D13B8E032B02D0FB8D032B01D13023E6
:101E80001DE2FB7D03F00203002B4BD13B8E022BA6
:101E900002D0FB8D022B45D1302310E2FB7D03F0F5
:101EA0000903002B1DD1954B1B88002B0BD0012360
:101EB0003B86934B1B88002B02D02223FB8531E00D
:101EC0000023FB852EE08E4B1B88002B04D00023C3
:101ED0003B860123FB8525E000233B860023FB8511
:101EE00020E0864B1B88002B09D097F83730002B59
:101EF00002D003233B8604E002233B8601E000235B
:101F00003B867F4B1B88002B0AD0FB7D03F004032C
:101F1000002B02D00323FB8504E00223FB8501E0B4
:101F20000023FB853B8E032B0CD1764A7B6A5362E0
:101F3000744A7B6A5360744A7B6A5362724A7B6A52
:101F400053600EE03B8E022B0BD16E4A7B6A5362CC
:101F50006C4A7B6A53606C4A7B6A53626A4A7B6A4A
:101F600053606A4B1B7883F00103DBB2002B07D070
:101F70003B8E002B02D0FB8D002B01D129239EE14B
:101F80003B8E002B02D1FB8D002B02D0604B012237
:101F90001A705F4B1B78002B10D0584B1B88002BFE
:101FA00004D05C4B4FF480621A8007E0544B1B88CE
:101FB000002B03D0574B4FF400621A803B8E022B4C
:101FC00008D03B8E032B05D0FB8D022B02D0FB8D5E
:101FD000032B09D1504B01221A70484B1B88002B50
:101FE00002D14C4B00221A80464A3B8E5380464A0F
:101FF000FB8D5380494B00221A80494B00221A80E6
:10200000484B00221A80484B00221A8097F837303C
:10201000002B3BD03A6A7B6A1344FB603A6A7B6AC6
:102020009A4217D3FA687B6AB2FBF3F39AB23D4B3C
:102030001A80FB687A6AB3FBF2F2796A01FB02F25A
:102040009B1A002B09D1374B1B8801339AB2354BB1
:102050001A8002E0334B01221A80FA687B6AB2FBD5
:10206000F3F39AB22D4B1A80FB687A6AB3FBF2F253
:10207000796A01FB02F29B1A002B06D0274B1B88C2
:1020800001339AB2254B1A800CE00BE03B8E022BF9
:1020900002D1244B01221A80FB8D032B02D01F4B4F
:1020A00001221A80214B00221A80214B1B887B853C
:1020B000124B1B88002B49D07B8D002B46D01D4B2B
:1020C0001B88BB85BB8D002B3AD0BB8D0233BB6018
:1020D0007A8DBB6802FB03F3BB60BB6803F5C343A7
:1020E0002733BB60BB68DB08134AA2FB03231B0A30
:1020F000BB60BB689AB2114B1A802CE0D225FF1F3F
:10210000FE25FF1FF026FF1FAC26FF1FCC25FF1F5B
:102110000F26FF1FEA25FF1F0826FF1FFA25FF1FB6
:10212000DA25FF1F0026FF1F1226FF1F3827FF1F7B
:10213000200401540004015489B5F8140C26FF1F33
:1021400000237B85604B00221A8004E00023BB85BE
:102150005D4B00221A805C4B1B88002B03D15B4B2C
:102160001B78002B0AD1584B1B88002B08D0574BEB
:102170001B7883F00103DBB2002B01D01F239EE00C
:10218000534B1B78002B0AD0524B1B88002B06D0D8
:10219000514B1B8843F480639AB24F4B1A804F4BCC
:1021A00000221A804E4B00221A804E4B00221A80C9
:1021B0004D4B00221A804D4B00221A704C4B0022CE
:1021C0001A704C4B00221A804B4B00221A854A4B46
:1021D00000225A85484B002283F84020474B0022BA
:1021E0001A85464B00225A85444B002283F8402032
:1021F000FB7D03F00203002B50D07B6A002B03D140
:10220000364B00221A8018E07B6A5B093C4AA2FB2D
:102210000323DB097B607B68042B03D82F4B01224F
:102220001A800AE07B689BB25B009BB2354AA2FB36
:102230000323DB089AB2294B1A80FB7D03F00403C9
:10224000002B2BD03A6A7B6A9A4204D2234B1A881D
:10225000254B1A8022E03A6A7B6A13445B09284ABC
:10226000A2FB0323DB093B603B68042B03D81E4B16
:1022700001221A8008E03B685B00224AA2FB03238C
:10228000DB089AB2184B1A80144B1B885B089AB271
:10229000154B1B8813449AB2134B1A800D4B1B88A5
:1022A000002B02D00220FFF75DFA174B1B88002B92
:1022B00002D00320FFF756FAFEF7B0FB00231846C2
:1022C0003837BD4680BD00BF0C26FF1F1026FF1FFC
:1022D0000F26FF1FD225FF1FEA25FF1FE025FF1F46
:1022E000D625FF1F0A26FF1FE625FF1FEC25FF1F2F
:1022F0000526FF1FE425FF1FAC26FF1FF026FF1F4A
:10230000C55A7C0ACDCCCCCCFE25FF1F80B483B04F
:1023100000AFFF23FB80134B1B78002B02D0124B26
:102320001B8818E0114B1B78002B05D0104BC822DE
:102330001A80104B00221A800F4B00221A850E4B78
:10234000002283F840200D4B00221A850B4B0022FF
:1023500083F84020FB8818460C37BD465DF8047BA7
:10236000704700BFD825FF1FD425FF1F0826FF1F79
:10237000E425FF1FDC25FF1FF026FF1FAC26FF1FF3
:1023800080B400AF044B00221A70044B00221A7074
:10239000BD465DF8047B70470426FF1F0926FF1F1A
:1023A00080B582B000AF344B1B88002B02D00220D6
:1023B000FFF7AEF9314B1B88002B02D00320FFF74B
:1023C000A7F90C23FB80FB8843F48063FB80FB8828
:1023D00043F40063FB80FB88DB439BB21846FFF7A6
:1023E0002DF9274B00221A70264B00221A70264B1B
:1023F00000221A70254B00221A70254B00221A70F9
:10240000244B00221A80244B00221A80234B0022E6
:102410001A80234B00221A80224B00221A80224B62
:1024200000221A80214B00221A80214B00221A80A0
:10243000204B00221A851F4B00225A851D4B00227B
:1024400083F840201C4B00221A851B4B00225A8522
:10245000194B002283F84020184B00221A80184B99
:1024600000221A70174B00221A70174B00221A70A4
:102470000837BD4680BD00BFD225FF1FFE25FF1FC8
:102480000426FF1F0F26FF1F0826FF1FEC25FF1F36
:102490000526FF1F0026FF1F1226FF1FE025FF1F36
:1024A000D625FF1F0A26FF1FE625FF1FFA25FF1F5F
:1024B000DA25FF1FF026FF1FAC26FF1FE425FF1FB4
:1024C0001026FF1F0E26FF1F3427FF1F80B400AF0A
:1024D000034B00221A70BD465DF8047B704700BFB5
:1024E0003427FF1F80B485B000AF03460A46FB7156
:1024F0001346BB80BB88FB81264B1B78FA799A4236
:1025000002D0244AFB791370BB884FF6FF729342C6
:1025100002D0214AFB8913801E4B1B78FB811F4A86
:10252000FB891380BB88002B04D0FB7903F01003D8
:10253000002B03D11A4B00221A701AE0BB882D2BF6
:1025400009D0BB881A2B06D0BB88322B03D0154B81
:102550001B78002B03D0124B01221A7009E0BB88B4
:102560001B2B03D10E4B02221A7002E00C4B0D22E2
:102570001A700B4B1B7843F01003DAB2084B1A7039
:10258000094B074A12781A701437BD465DF8047B70
:10259000704700BFD125FF1F3401015430010154A1
:1025A0001526FF1FD825FF1F3901015480B584B0BF
:1025B00000AF03460A46FB711346BB800023FB8134
:1025C00000237B73D34B4FF6FF721A80D24B01224C
:1025D0001A70FB7903F01003002B09D001237B73E1
:1025E000CE4B1B7823F01003DAB2CC4B1A7012E0FA
:1025F000CA4B1B7803F01003002B05D0FB7903F0C6
:102600000F03012B00D02FE3C44B1B7803F00F0303
:10261000DAB2C24B1A70FB7903F00F03FB71BF4BA8
:102620001B783B733B7B1B013B733A7BFB79134469
:102630003B733B7B442B29D0442B0BDC222B15D046
:10264000222B02DC122B11D028E0242B14D0422B99
:102650000CD023E0822B09D0822B02DC482B15D032
:102660001CE0842B12D0882B10D017E00220FFF73B
:10267000A3F80346FB8111E0A948AA49FDF778FDBC
:102680000346FB81FB89002B00D007E0A64B1B789B
:102690001846FFF791F80346FB8100BFFB89002B2A
:1026A00040F00E82A14B00221A803B7B113B772B1E
:1026B00000F2028201A252F823F000BF6F2A020842
:1026C000AD2802089D280208B32A0208B92A020888
:1026D000B92A0208B92A0208B32A0208B92A02084C
:1026E000B92A0208B92A0208B92A0208B92A020836
:1026F000B92A0208B92A0208B92A02085D2A020882
:10270000732A0208B32A02083B290208B92A0208E0
:10271000B92A0208B92A0208B32A0208B92A02080B
:10272000B92A0208B92A0208B92A0208B92A0208F5
:10273000B92A0208B92A0208B92A0208A3280208FD
:10274000B32A0208B92A0208B32A0208B92A0208E1
:10275000B92A0208B92A0208B32A0208B92A0208CB
:10276000B92A0208B92A0208B92A0208B92A0208B5
:10277000B92A0208B92A0208B92A02083F2A02081F
:10278000112A0208B32A0208732A0208B92A020889
:10279000B92A0208B92A020895290208B92A0208AA
:1027A000B92A0208B92A0208B92A0208B92A020875
:1027B000B92A0208B92A0208B92A0208B92A020865
:1027C000B92A0208B92A0208B92A0208B92A020855
:1027D000B92A0208B92A0208B92A0208B92A020845
:1027E000B92A0208B92A0208B92A0208B92A020835
:1027F000B92A0208B92A0208B92A0208B92A020825
:10280000B92A0208B92A0208B92A0208B92A020814
:10281000B92A0208B92A0208B92A0208B92A020804
:10282000B92A0208B92A0208B92A0208B92A0208F4
:10283000B92A0208B92A0208B92A0208B92A0208E4
:10284000B92A0208B92A0208B92A0208B92A0208D4
:10285000B92A0208B92A0208B92A0208B92A0208C4
:10286000B92A0208B92A0208B92A0208B92A0208B4
:10287000B92A0208B92A0208B92A0208212A02083C
:10288000F3290208B32A0208E3290208B92A020838
:10289000B92A0208B92A0208732A02081323FB8105
:1028A0000DE11323FB81FFF711FE08E1FEF7F6FEB1
:1028B0001F4B1B7883F00103DBB2002B01D05123A7
:1028C000FB81FB89002B37D100F0B4FE0346FB816E
:1028D000FB89002B0CD1104B00221A70FDF714FC61
:1028E0000346FB81FB89002B02D1124B01221A7097
:1028F000FB89002B20D0FB89FF2B1DD0064B1B78BA
:1029000083F00103DBB2002B01D0FDF705FC00F0E2
:1029100011FFD4E00626FF1FD025FF1FD125FF1F82
:10292000FE25FF1FD225FF1F1426FF1FCE25FF1FE8
:102930004A15FF1F8626FF1FC1E0FFF71BF903465C
:10294000FB81FB89002B12D1AC4B00221A70AC48E2
:10295000FDF7EAFB0346FB81FB89002B07D1A84B5F
:102960001B881846FEF782FEA64B01221A70FB89CF
:10297000002B0ED0FB89FF2B0BD0A04B1B7883F0D4
:102980000103DBB2002B01D0FDF7DAFBFFF708FDF6
:1029900095E094E0FFF7BAFC0346FB81FB89002B2E
:1029A0000CD1964B00221A70FDF7D2FB0346FB8137
:1029B000FB89002B02D1944B01221A70FB89002B5A
:1029C0000ED0FB89FF2B0BD08C4B1B7883F00103BF
:1029D000DBB2002B01D0FDF7C3FBFFF7D1FC6EE0AB
:1029E0006DE0FDF7BDFBFFF7CBFC844B00221A70B6
:1029F00065E0FDF7B5FB0346FB81FFF7C1FC7F4BAC
:102A000000221A70FB89002B00D058E042233B7350
:102A1000FDF796FBFFF7C4FC784B00221A704EE0DE
:102A2000FDF79EFB0346FB81FFF7AAFC734B0022D8
:102A30001A70FB89002B00D041E041233B73FDF766
:102A40007FFB0346FB81FFF7ABFC6C4B00221A7047
:102A5000FB89002B00D032E021233B7300F06AFE9B
:102A6000FDF75AFB0346FB81FFF730FD27E0FFF738
:102A70002DFD7B7B002B04D03B7B9BB21846FDF7E2
:102A800039FB624B1B7803F00C03002B0ED0604B1C
:102A90001B88002B03D00220FEF764FE06E05D4B8E
:102AA0001B88002B02D00320FEF75CFEFE23FB8177
:102AB00005E01123FB8102E01223FB8100BF24E02B
:102AC000524B1B78042B08D0082B02D0022B08D0C5
:102AD0001BE0FDF745FBFFF753FCFDF731FBFFF76C
:102AE0005FFCFB89162B0DD100F024FEFDF714FBD3
:102AF0000020FEF70DFE0120FEF70AFE434B0122E7
:102B00001A7002E0414B02221A70FB89FF2B35D16B
:102B1000414B01221A703B7B9AB2404B1A803F4BCB
:102B20001B88242B0DD0242B03DC123B012B0DD84A
:102B300002E0482B05D009E0394B4FF4FA621A80C5
:102B400008E0374B42F228321A8003E0344BC822A7
:102B50001A8000BF324B1B889AB2314B1B881BB2C4
:102B6000304981FB03018910DB17CB1A9BB29BB262
:102B7000D31A9BB29AB22A4B1A8075E0FA79234B8A
:102B80001B7803F00F039A4265D0FB89002B02D11A
:102B9000BB88002B1FD01D4B1A78FB791343DBB287
:102BA00003F00803002B16D0174B1B78002B03D023
:102BB000FDF7D6FAFFF7E4FB154B1B88002B03D07B
:102BC0000220FEF7A5FD06E0124B1B88002B02D069
:102BD0000320FEF79DFDFB89002B25D00B4B1B78B6
:102BE000082B02D1094B04221A70084B1B7843F0C2
:102BF0001003DAB2054B1A7022E000BFD025FF1F88
:102C0000EA25FF1F0E26FF1F0926FF1FD125FF1FE4
:102C1000D225FF1FFE25FF1FFC25FF1FCE25FF1F0E
:102C20000626FF1F67666666BB88002B05D0BB883B
:102C3000FB81FB7943F01003FB710D4AFB791370A4
:102C40000C4B00221A700A4B1A78FB891046194661
:102C5000FFF748FC08E0074B00221A70044B1B7872
:102C600018460021FFF73EFC1037BD4680BD00BF6F
:102C7000D125FF1FFC25FF1F80B582B000AFA14BFF
:102C80001B78002B00F03B8100237B800023FB712D
:102C90000023BB809C4B1B88002B7CD19B4B1B884B
:102CA0001B099BB2FB71994B1B88242B1FD0242B33
:102CB00004DC123B012B00F20F8102E0482B2CD0E8
:102CC0000AE1934B1B7883F00103DBB2002B01D0A8
:102CD000FDF722FA00F02EFD8E4B1B78002B03D05F
:102CE0008D4B1B88BB8055E00123BB8052E0884B95
:102CF0001B7883F00103DBB2002B01D0FDF720FA33
:102D0000FFF74EFB834B1B78002B03D0824B1B88B5
:102D1000BB803FE00123BB803CE0804B1B78002B55
:102D20001AD07F4B1B7883F00103DBB2002B02D05B
:102D30002D23BB801EE07B4B1B7883F00103DBB2AD
:102D4000002B06D0784B1B88002B02D01B23BB80A6
:102D500010E01A23BB800DE0734B1B88002B02D0C0
:102D60001B23BB8006E00823FB710023BB806F4B55
:102D700001221A70BB88002B0BD0654B1B7883F0A7
:102D80000103DBB2002B01D0FDF7EAF9FFF7F8FAF7
:102D9000FFE700BFA0E05D4B1B88242B2AD0242B2B
:102DA00004DC123B012B00F2978002E0482B3FD05D
:102DB00092E0574B1B78002B1BD0554B00221A700A
:102DC000FDF7A2F903467B807B88002B09D1584B85
:102DD00001221A704D4B1B88DBB203F00F03FB710D
:102DE00007E07B88FF2B04D0FDF796F900F0A2FCEA
:102DF00072E071E0464B1B78002B18D0444B002248
:102E00001A704C48FDF790F903467B807B88002BB5
:102E100005D1494B01221A700423FB7107E07B881E
:102E2000FF2B04D0FDF78CF9FFF7BAFA54E053E01A
:102E3000374B1B78002B4ED0384B1B78002B2AD0F9
:102E40003E4B1B881BB2002B45DD3C4B1A883C4B8C
:102E50001B8812B21BB29A423DDC384B00221A800A
:102E6000374B00221A802A4B00221A70FDF770F9A6
:102E700003467B807B88002B05D12C4B01221A70E6
:102E80000823FB7127E07B88FF2B24D0FDF768F92E
:102E9000FFF776FA1FE0244B1B88002B03D0214B51
:102EA0001B78002B17D01A4B00221A70FDF750F92F
:102EB00003467B807B88002B05D11C4B01221A70B6
:102EC0000823FB7107E07B88FF2B04D0FDF748F94E
:102ED000FFF756FAFFE700BFFB79002B0FD0094B35
:102EE00000221A70BB88002B03D0FB7943F010033B
:102EF000FB71FA79BB8810461946FFF7F3FA0837D9
:102F0000BD4680BDFC25FF1F0626FF1FCE25FF1FE7
:102F1000D025FF1FD825FF1FD425FF1F0826FF1F20
:102F2000EC25FF1F0426FF1FD225FF1F0926FF1FC8
:102F30008626FF1FEA25FF1F0E26FF1FE425FF1F21
:102F4000DC25FF1F80B400AF394B1B78002B6BD002
:102F5000384B1B78002B67D0374B1B88002B09D0D0
:102F6000364B1A88344B1B889A4203D3344B0022C9
:102F70001A700EE0314B1A882F4B1B889A4205D2EB
:102F80002E4B1B8801339AB22C4B1A802C4B0122FA
:102F90001A702B4B1B78002B13D02A4B1B88002B4D
:102FA0000FD0294B1A88274B1B889A4206D2264BF2
:102FB0001B8801339AB2244B1A8002E0204B002276
:102FC0001A701F4B1B78002B27D0204B1A8D204BDB
:102FD0001B899A4211D21F4B01221A701E4B1B886B
:102FE0001BB2002B20DD1D4B1B889BB29BB2013313
:102FF0009BB29AB2194B1A8016E0164B1B78002B25
:1030000012D0144B00221A70134B1B881BB2002BDA
:103010000ADD124B00221A8006E00E4B1B78002BB3
:1030200002D00C4B00221A70BD465DF8047B70473D
:103030000826FF1F0E26FF1FE025FF1FD625FF1FB6
:10304000EC25FF1FE625FF1F0A26FF1FF026FF1FA6
:10305000E413FF1F0526FF1FE425FF1FDC25FF1FCC
:1030600080B582B000AF204B1B88002B19D0002305
:10307000FB801E4B1B88FB80FB8803F00103002BA9
:103080000FD11B4B1B88002B0BD01A4B1B78002B2E
:1030900004D004201B21FFF789FA22E0164B0022FE
:1030A0001A70164B1B78002B1BD0124B1B78002B71
:1030B00017D0134B1B7883F00103DBB2002B04D035
:1030C00004202C21FFF772FA0BE00E4B1B7883F0E3
:1030D0000103DBB2002B04D004201A21FFF766FAAB
:1030E00000BF0837BD4680BD0C26FF1F40040154B9
:1030F000D225FF1F0926FF1F0426FF1F0826FF1FDA
:10310000EC25FF1F0526FF1F80B582B000AF394BAD
:103110001B78DAB2384B1A70384B1B889AB2384B8E
:103120001A80374B1B889B029BB203F6FF739AB23F
:10313000334B1A80FEF7B2FA0023FB7106E0FB79ED
:103140001846FEF7E5FAFB790133FB712A4B1B7831
:10315000FA799A42F3D300F0F3F92A4B00221A705D
:10316000294B00221A70294B00221A70284B00228A
:103170001A70284B00221A70274B00221A70274B16
:1031800000221A80264B00221A80264B00221A8029
:10319000254B00221A80254B00221A80244B002246
:1031A0001A70244B00221A70234B00221A80234BE2
:1031B00000221A80224B00221A80224B00221A8001
:1031C000214B01221A70204B1B7818460021FFF773
:1031D00089F91E4B00221A801D4B00221A701D4BCC
:1031E00000221A70FEF788F90020FEF727FA083748
:1031F000BD4680BD050001541426FF1F0600015482
:103200000226FF1FD025FF1FFC25FF1F0426FF1FDE
:103210000926FF1F0E26FF1F1026FF1F0C26FF1F6B
:10322000D625FF1FE025FF1F0A26FF1FE625FF1FEB
:103230000826FF1FD825FF1FD425FF1FEA25FF1FE3
:10324000D225FF1FFE25FF1FD125FF1FCE25FF1F03
:103250001526FF1F0F26FF1F80B582B000AF002389
:103260007B8001237B7100F099FD584B1B78002B6C
:1032700002D0574B1B787B71FEF7D8F90346FB80D1
:10328000FB8803F02003002B01D0FDF7FDFFFB8836
:1032900003F00103002B14D04E4B1B7883F0010385
:1032A000DBB2002B0DD04C4B1B78DBB27B80FB8854
:1032B00023F01103FB807B88DBB218460021FFF767
:1032C00075F9FB8803F01003002B1FD0414B1B78CE
:1032D00083F00103DBB2002B18D0404B1B7803F0C6
:1032E0001003002B12D13D4B1B7823F01003012B50
:1032F0000CD0FB8823F01003FB80384B1B7803F0C5
:103300000F03DBB218460021FFF750F9314B1B7851
:10331000002B01D0FFF7B0FC2C4B1B78002B52D0B8
:103320007B7903F00103002B08D12C4B1B7803F0B1
:103330000F03DBB218460021FFF738F9FB8803F4CE
:103340000073002B12D0264B00221A70254B1B88CD
:1033500003F1A84303F58033214A1278D2B21A70E0
:10336000FB8823F40073FB8000F0F6FA7B7903F00E
:103370000203002B06D01C4B1B7883F00103DBB249
:10338000002B08D17B7903F00203002B0CD1164BE4
:103390001B78002B08D000F047FB7B7903F0020379
:1033A0007B71124A7B791370FEF740F90346FB806C
:1033B000FB8803F48073002B05D0FB8823F4807313
:1033C000FB8000F0DDFB0837BD4680BD8626FF1F71
:1033D0000E080154FC25FF1F20010154D125FF1FB9
:1033E000E825FF1F9A26FF1FA426FF1F0F08015480
:1033F00080B582B000AF78600B467B8013463B807F
:103400007B8803F1A84303F580333A88786819462E
:1034100006F0D6FC0837BD4680BD00BF80B582B03F
:1034200000AF78600B467B8013463B807A883B88F0
:10343000786811461A46FFF7DBFF0837BD4680BDA6
:1034400080B582B000AF78600B467B8013463B802E
:103450007B8803F1A84303F580333A8818467968DE
:1034600006F0AEFC0837BD4680BD00BF80B582B017
:1034700000AF78600B467B8013463B807A883B88A0
:10348000786811461A46FFF7DBFF0837BD4680BD56
:1034900080B485B000AF786039603B685B880133E9
:1034A000FB813B689B88FA899A4201D10023FB810A
:1034B0003B681B88FA899A4201D107230BE03B68DD
:1034C0005B881A463B680232796843F822103B68F1
:1034D000FA895A80002318461437BD465DF8047BEC
:1034E000704700BF80B485B000AF78607B681A88F1
:1034F0007B685B889A4219D07B681B887B817A89BC
:103500007B68023253F82230FB607B8901337B8178
:103510007B687A891A807B681A887B689B889A42C4
:1035200003D17B6800221A8002E001E00023FB60E7
:10353000FB6818461437BD465DF8047B704700BF32
:1035400080B483B000AF294B24221A80284B8022FC
:103550001A80284B4FF480521A80274B4FF4805228
:103560001A80264B00221A80244B00225A80234BBB
:103570000A229A80224B00221A80214B00225A8074
:103580001F4B0A229A801F4B00221A601E4B0022FA
:103590001A601E4B00221A601D4B00221A601D4B40
:1035A00000221A700023FB711B4B1B78FB71FB7907
:1035B00023F00203FB71184AFB791370174B0022AA
:1035C0001A70174B00221A70164B00221A70164BF5
:1035D00000221A70154B00221A70154B00221A7027
:1035E0000C37BD465DF8047B704700BFA226FF1F65
:1035F0009026FF1F8826FF1F9A26FF1F5026FF1FB9
:103600001C26FF1F9C26FF1FA826FF1F9426FF1FB6
:103610008C26FF1FA426FF1F0F0801548626FF1FBC
:103620008526FF1F9826FF1FA126FF1FA026FF1F2C
:103630001826FF1F80B582B000AF0023FB8000205A
:10364000FEF74EF838603B685B889AB2334B1A80BD
:103650003B681B889AB2324B1A800120FEF740F873
:1036600038603B685B889AB22E4B1A803B681B8897
:103670009AB22D4B1A802A4B1B881A46274B1B885F
:103680001344294A128893420CDD254B1B881A46A5
:10369000254B1B881946234B1B880B449A4201DAA1
:1036A000162337E00020FEF75DF80120FEF75AF8F8
:1036B0001A4B1B88184606F063FB03461A461B4B41
:1036C0001A601A4B1B68002B18D1194B01221A7073
:1036D0000A2006F055FB03461A46144B1A60134B9A
:1036E0001B68002B01D10223FB80104B1B6818467E
:1036F00006F04EFB0D4B00221A600AE00C4B002234
:103700001A700A4B1B68184606F042FB074B002252
:103710001A60FB8818460837BD4680BDA226FF1FE9
:103720008826FF1F9026FF1F9A26FF1F9C26FF1F3B
:103730008426FF1F80B582B000AF3F4B00221A7075
:103740000020FDF7E5FF0120FDF7E2FF3B4B1B6882
:10375000002B04D0394B1B68184606F019FB384B78
:103760001B68002B0AD0364B1A68344B1B689A42F0
:1037700004D0334B1B68184606F00AFB314B1B681C
:10378000002B10D02F4B1A682C4B1B689A420AD082
:103790002C4B1A682A4B1B689A4204D0294B1B6891
:1037A000184606F0F5FA02F0A7FB274B00221A6034
:1037B000224B00221A60234B00221A60204B002269
:1037C0001A60224B00221A700023FB71204B1B78D9
:1037D000FB71FB7923F00203FB711D4AFB79137027
:1037E0001C4B00221A701C4B00221A701B4B00222B
:1037F0001A701B4B00221A701A4B00221A701A48BA
:10380000FFF770FE38603B68002B02D0386806F086
:10381000BFFA3B68002BF2D11448FFF763FE386013
:103820003B68002B02D0386806F0B2FA3B68002BE8
:10383000F2D10837BD4680BD8626FF1FA826FF1F90
:103840008C26FF1F9426FF1F9C26FF1FA426FF1F08
:103850000F0801548526FF1F9826FF1FA126FF1F72
:10386000A026FF1F1826FF1F5026FF1F1C26FF1F24
:1038700080B584B000AF78607B685B7903F00F039C
:10388000032B05D17868FDF747FE0346FB7302E082
:103890000223FB7300BFFB7B18461037BD4680BD7B
:1038A00080B584B000AF78600023FB737B685B79E0
:1038B0001B09BB737B681B88BB81BB89802B14D918
:1038C0007B6804221A807B685B7923F00F03DAB2ED
:1038D0007B685A717B680122DA807B6808221A8132
:1038E0007868002100F0E2F82FE0BB7B002B04D0C9
:1038F000174B1B78BA7B9A4222D0154ABB7B1370B8
:1039000078681449FFF7C4FD0346FB73FB7B002B6B
:1039100015D07B6804221A807B685B7923F00F0343
:10392000DAB27B685A717B680122DA80FB7B9AB23B
:103930007B681A817868002100F0B8F805E004E09F
:10394000786806F025FA00237B601037BD4680BDFD
:10395000A026FF1F5026FF1F80B582B000AF2B4B63
:1039600000221A702A4B1B68002B0BD0294B1B68B6
:10397000002B07D1264B1B68184606F009FA244B8A
:1039800000221A60244B1B68214A1360214B1B68DC
:10399000002B08D01F4B1B68184600F095F91D4BF3
:1039A00000221A6009E01D48FFF79CFD78607B68E3
:1039B000002B02D0786800F087F9194B1B78002B98
:1039C00020D0174B1B7803F00203002B1AD00023E2
:1039D000FB70134B1B7823F00203DAB2104B1A7002
:1039E000104B1B681846FDF7CFFD0346FB70FB78B4
:1039F000002B07D00A4B1B7843F00203DAB2084BC6
:103A00001A70FFE70837BD4680BD00BF8526FF1F3F
:103A1000A826FF1F8C26FF1F9426FF1F1C26FF1FB2
:103A2000A126FF1F9C26FF1F80B582B000AF1A4B56
:103A30001B68002B1DD0184B1B687B60174B1B7835
:103A4000002B10D0164B1B68002B0CD10120FDF76A
:103A50005FFE144B1B68124A13600120FDF782FEC3
:103A60000E4B00221A70786800F02EF90A4B0022E3
:103A70001A600D4B1B78002B14BF01230023DBB20F
:103A800083F00103DBB203F00103DAB2064B1A70D4
:103A90000837BD4680BD00BFA826FF1F8526FF1F33
:103AA0008C26FF1F9426FF1FA426FF1F80B584B01D
:103AB00000AF78600B46FB700023FB732C4B1B7828
:103AC00003F00F03012B01D1F0234DE07B685B79FC
:103AD00003F00F03DAB27B685A71264B1B7803F0B0
:103AE0000703002B02D1234B01221A707B685B79FC
:103AF000DAB2204B1B781B01DBB21343DBB2DAB224
:103B00007B685A71786800F0DFF80346002B14D008
:103B100078681949FFF7BCFC0346FB73FB7B002B5D
:103B200004D0FB7863F07F03FB700CE0114B1B7833
:103B30000133DAB20F4B1A7005E00E4B1B780133DC
:103B4000DAB20C4B1A70FB785BB2002B0BDAFB7805
:103B500003F07F03DAB2094B1B78DBB21343DBB20D
:103B6000DAB2064B1A70FB7B18461037BD4680BD93
:103B7000D125FF1F1826FF1F1C26FF1FA126FF1F90
:103B800080B584B000AF464B1B885B089BB25B00DE
:103B900003F1A84303F580331B88FB81414B1B785D
:103BA000002B23D00A2006F0EBF80346BB60BB686D
:103BB000002B1BD0B86800210A2206F00CF9BB6864
:103BC00004221A80BB685B7923F00F03DAB2BB686A
:103BD0005A71BB680122DA80BB6807221A81B86873
:103BE0000021FFF763FFB86806F0D2F8FB890633BF
:103BF000FB812D4B1B78002B03D12C4B1B78002B0A
:103C000003D02B4B01221A7046E0294B00221A7078
:103C1000284B1B88FA899A4202D9264B1B88FB81C4
:103C2000244B1B88184606F0ABF803461A46224B75
:103C30001A60214B1B68002B03D11D4B01221A7007
:103C40002AE01D4B1968164B1A88FB890846114655
:103C50001A46FFF7E3FB0023FB71184B1B78DBB21E
:103C6000FB71FB79DBB203F00803002B0FD0144B80
:103C700000221A700A4B1B881A460E4B1B881344ED
:103C80001A46104B13441B78DAB20D4B1A700A4BCC
:103C90001B681846FFF704FE1037BD4680BD00BF05
:103CA0008826FF1F8426FF1F8526FF1FA126FF1FD2
:103CB0009826FF1FA226FF1F9C26FF1F0508015400
:103CC000E825FF1FFFFF005480B584B000AF786087
:103CD000284B1B7803F00F03012B01D1F02345E0A3
:103CE000254B1B7883F00103DBB2002B01D0F023BE
:103CF0003CE0224B1B78002B01D0072336E07B6889
:103D00001B88FB811E4B1A88FB8906339BB278689F
:103D100011461A46FFF7AAFB00237B73194B1B7849
:103D2000DBB27B737B7BDBB203F00803002B0FD18C
:103D3000154B00221A70124B1B881A46134B1B8816
:103D400013441A46124B13440F4A1278D2B21A7017
:103D5000104B1B68002B02D00F4B00221A600D4A3B
:103D60007B681360054B01221A7000231846103738
:103D7000BD4680BDD125FF1F8626FF1F8526FF1F5C
:103D80009A26FF1F0D080154E825FF1F9026FF1FEC
:103D9000FFFF00549426FF1F9C26FF1F80B582B0B2
:103DA00000AF00233B600023FB711848FFF79AFB2C
:103DB00038603B68002B04D03868FFF759FD034694
:103DC000FB71FB79002B14D03B6804221A803B68FE
:103DD0005B7923F00F03DAB23B685A713B6801222A
:103DE000DA80FB799AB23B681A8138680021FFF7C4
:103DF0005DFE3B68002BD6D1054B1B78002B01D014
:103E0000FFF7BEFE0837BD4680BD00BF5026FF1F2E
:103E10009826FF1F80B584B000AF0346FB80FCF7F7
:103E20001BFBF86009E0FB681B89FA889A4201D104
:103E3000FB6806E0FB685B68FB60FB68002BF2D167
:103E4000002318461037BD4680BD00BF80B485B042
:103E500000AF3A601A460346FB800B467B7113465F
:103E60003B713B689B8903F470631B12BB723B6818
:103E70009B897B720023FB603B79002B43D0BB7A8C
:103E8000072B01D1002367E0BB7A082B18D13B68D0
:103E90009B691B887B723B681B6906335B881A46EB
:103EA0007B7A03FB02F3FB60FB680733DB08FB60F4
:103EB0007B79002B02D1FB680233FB60FB684BE08F
:103EC0000123FB720FE03B681969FA7A13465B0025
:103ED00013445B000B445B881A46FB681344FB6089
:103EE000FB7A0133FB72FA7A7B7A9A42EBD9FB6850
:103EF0000733DB08FB607B79002B02D1FB680233C0
:103F0000FB60FB6828E0BB7A072B05D13B681B6987
:103F10005B880733DB101FE07B79002B01D1012385
:103F20001AE0BB7A082B06D13B681B6906335B8815
:103F30000733DB1010E07A7A7B799A4201D20023B2
:103F40000AE03B6819697A7913465B0013445B0009
:103F50000B445B880733DB1018461437BD465DF809
:103F6000047B704790B484B000AF78600B46FB7060
:103F70007B68023330221A707B681A78FB781C4900
:103F8000A1FB03135B09DBB21344DAB27B681A703E
:103F9000FB78174AA2FB03125209642101FB02F2CB
:103FA0009B1AFB737B6801337A6801321178FA7BC4
:103FB0001048A0FB0202D208D2B20A44D2B21A7050
:103FC0007B68981C7B6802331C78FA7B094BA3FB47
:103FD0000213D9080B469B000B445B00D31ADBB2DB
:103FE0002344DBB203701037BD4690BC704700BF5E
:103FF0001F85EB51CDCCCCCC80B586B000AF03464D
:10400000FB71FB79202202FA03F3BB81FCF724FA4F
:10401000786100237B8232E07B691B89B3F5805F86
:104020002AD3FB797B747B7C002B1FD07B699B8917
:10403000FB720023FB8111E0FB89DBB27869194632
:1040400000F032F903469A88BB8913409BB2002BDB
:1040500001D000237B74FB890133FB817B7C002B27
:1040600004D0FB7A9BB2FA899A42E5D97B7C002B7B
:1040700002D17B8A01337B827B695B687B617B69D0
:10408000002BC9D17B8A18461837BD4680BD00BFBA
:1040900080B588B000AFB9607B600346FB811346F2
:1040A000BB81FB89202202FA03F3FB82BB681B88D9
:1040B000B3F5805F0CD1FCF7CFF9F861FB69002BF9
:1040C00009D1BB6A002B06D0BB6A1B221A7002E022
:1040D0002C4B1B68FB61FB69002B3ED037E0FB6972
:1040E0001B89B3F5805F2FD3FB897B837B8B002BF0
:1040F0001DD0FB699B897B7500237B7610E07B7E5E
:10410000F869194600F0D0F803469A88FB8A1340F4
:104110009BB2002B01D000237B837B7E01337B7617
:104120007B8B002B03D07A7E7B7D9A42E7D97B8BF9
:10413000002B09D1FB691A897B681A807B680233DE
:104140007B60BB89023BBB81FB695B68FB61FB69F0
:10415000002B02D0BB89012BC1D8FB69002B04D0F6
:10416000FB691A89BB681A8003E0BB684FF6FF72CF
:104170001A80044AFB691360BB8918462037BD4684
:1041800080BD00BF5827FF1F90B58DB000AFBA604B
:104190007B600346FB810B467B730023FB85BB687A
:1041A0005B697B62BB689B8903F470631B1287F8B1
:1041B00023307B7B002B03D097F82330072B0FD1C4
:1041C000786A05F0BBFE0346FB857B68002B06D0B2
:1041D000FB8D7868796A1A4605F0F2FD5DE05CE0D7
:1041E00097F82330092B3AD10123BB857B7B3B8495
:1041F000786A05F0A3FE034601337A6A1344BB6272
:1042000021E0BA8D3B8C9A4212D1B86A05F096FE35
:104210000346FB857B68002B09D0FB8D002B06D065
:10422000FB8D7868B96A1A4605F0CAFD17E016E0FA
:10423000BB8D0133BB85B86A05F080FE03460133B0
:10424000BA6A1344BB62BA8D3B8C9A4207D8BB6AE8
:104250001B78FF2B03D0BB6A1B78FE2BD1D1FB8DC3
:10426000002B1AD10C23FB857B68002B15D00D4B3E
:1042700007F110040FCB07C4237007F1100303F1FB
:1042800009027B7B10461946FFF76CFE07F110030D
:10429000786819460D2205F093FDFB8D18463437DA
:1042A000BD4690BDF013FF1F80B485B000AF7860AD
:1042B0000B46FB707B689B8903F470631B12FB72D7
:1042C000FB7A082B0BD1FB78002B03D17B681B6991
:1042D000FB600DE07B681B690633FB6008E07B68D0
:1042E0001969FA7813465B0013445B000B44FB60CA
:1042F000FB6818461437BD465DF8047B704700BF65
:1043000080B483B000AF78607B680A3318460C37FE
:10431000BD465DF8047B704780B487B000AF0346AC
:104320003960FB710023BB823B689B8903F4706397
:104330001B12FB73FB79002B02D0BB8A1033BB82AC
:10434000FB7B072B01D1002391E00123FB8287E057
:10435000FB7B082B04D13B681B6906333B6108E0FB
:104360003B681969FA8A13465B0013445B000B44EF
:104370003B613B691B881F2B23D01F2B0DDC062BB9
:104380001FD0062B04DC032B1BD0042B37D058E0A6
:10439000082B34DD0B2B14D053E02F2B2FD02F2BD9
:1043A00004DC202B2BD02E2B0BD04AE0B3F5187F4A
:1043B00007D0B3F5187F44DBA3F26223012B40D86A
:1043C0001DE0BB8A0F339BB223F00F03BB82FB7946
:1043D0009BB2FA8A9A4211D23B691B880B2B04D0FC
:1043E0003B691B88B3F5187F04D13B695A88BB8AA7
:1043F0001344BB82BB8A1033BB822EE02DE0BB8A04
:104400001F339BB223F01F03BB82FB799BB2FA8A56
:104410009A4215D23B691B8840F26222934205D032
:104420003B691B8840F26322934205D13B695A885D
:10443000BB8A1344BB8203E0BB8A2033BB820CE0FF
:104440000BE0FB799BB2FA8A9A4205D23B695A8803
:10445000BB8A1344BB82FFE700BFFB8A0133FB82A8
:10446000FB799BB2FA8A9A427FF672AFBB8A1846F2
:104470001C37BD465DF8047B704700BF80B483B035
:1044800000AF03460A46FB801346BB80BB88222B45
:1044900000F2BB8001A252F823F000BF29450208B8
:1044A0002D4502089F450208D54502080B46020823
:1044B0000B4602080B4602080B4602080B46020890
:1044C0000B4602080B4602080B4602080B46020880
:1044D0000B4602080B4602080B4602080B46020870
:1044E0000B4602080B4602080B4602080B46020860
:1044F0000B4602080B4602080B4602080B46020850
:104500000B4602080B4602080B4602080B4602083F
:104510000B4602080B4602080B4602080B4602082F
:104520000B4602087B45020800236FE0FB8841F63A
:10453000324293420BD1384B1B88002B07D0374BAC
:104540009B8903F00203002B01DD00235EE0FB8862
:1045500041F6334293420FD1314B9B8903F0020362
:10456000002B09DD2C4B1B88002B05D12D4B1B8804
:10457000002B01D0002349E047E0FB8841F633429D
:1045800093420BD1264B9B8903F00203002B05DDE0
:10459000214B1B88002B01D0002337E035E0FB883E
:1045A00041F63242934207D11C4B9B8903F004032E
:1045B000002B01DD002329E0FB8841F633429342C2
:1045C00007D1174B9B8903F00403002B01DD002367
:1045D0001CE01AE0FB8841F63242934207D10F4BB0
:1045E0009B8903F00803002B01DD00230EE0FB880C
:1045F00041F63342934207D1094B9B8903F00803EC
:10460000002B01DD002301E000BF122318460C3708
:10461000BD465DF8047B7047D225FF1FF026FF1FC3
:10462000AC26FF1FFE25FF1F90B591B002AFBA6008
:104630007B600346FB810B467B737B7BFB867B6841
:104640009B8903F470631B1287F82A307B689B896F
:10465000DBB2BB867B7B7B8697F82A30072B08D0A2
:10466000FB89B3F5805F04D37B689B691B88DBB251
:10467000BB8697F84C30002B0CD097F82A30072BCC
:1046800003D0FB89B3F5805F01D205239EE2BB8E88
:104690007B862DE07B7B9BB2BA8E9A4201D211239E
:1046A00094E2FB8EDBB278681946FFF7FDFD786275
:1046B0007B6A9B88002B19D07B6A9B88DBB203F056
:1046C0000703DBB25B00DBB21A46A04B1B7803F09A
:1046D0000F031340002B0BD17B6A9B8803F0070369
:1046E000002B01D1062371E21A236FE205236DE24C
:1046F0007B68DB69002B0DD07B68DC69F9897A7BEC
:1047000097F84C30009308461146BA68BB6CA04736
:1047100003465BE2FB89B3F5805F32D27B7B002BE3
:104720002FD07B689B693B627B7B78681946FFF7DB
:10473000BBFD78627B6A5B880733DB10FB833B6AD7
:10474000BB617B7B03F18043013B9B00BA6913444F
:104750001B683B623B6A1A88BB6C1A80BB6C0233D5
:104760003A6A52881A80BB6C0433BB643B6A0433D8
:104770003B62FB8B043BB86C396A1A4605F020FBA0
:1047800023E2002387F83130002387F830307B7B29
:10479000FB860EE27B689B697B610023FB85FB8EB9
:1047A000002B0BD0FB89B3F5805F07D3FB8EDBB208
:1047B00018467968FFF7B0FD0346FB85FB8D1B09A2
:1047C0009BB25B007A6913447B61FB8EDBB2786835
:1047D0001946FFF769FD78627B6A9B88DBB203F0BC
:1047E0000703DBB25B00DBB21A46584B1B7803F0C1
:1047F0000F031340002B00F095817B7B9BB2FA8E58
:104800009A420AD097F84C30002B00F08A817B7BCB
:104810009BB2FA8E9A42C0F08481FB8E002B0AD1A3
:1048200097F82A30072B06D0BB6CBA8E1A80BB6C67
:104830000233BB6475E17B6A1B88BB857B6A1B887E
:10484000B3F5E06F15D37B6A5B88082B04D87B6ACD
:104850005B882F33BB850CE07B6A5B88102B02D111
:104860000623BB8505E07B6A5B88202B01D10723EB
:10487000BB85BB8D112B00F0E080112B1EDC052BBE
:1048800066D0052B0DDC022B04DC012B60DA002B3B
:104890003AD040E1032B00F0AD80042B00F0B9804A
:1048A00039E1082B03DC072B80F2B380A2E0092B4F
:1048B00000F009810B2B00F32E81DCE02D2B47D07B
:1048C0002D2B11DC1E2B43D01E2B06DC152B00F0EC
:1048D000B4801B2B00F0B1801DE11F2B00F08A80FB
:1048E000202B00F0968016E1372B07DC302B2FDAD7
:1048F0002E2B7FD02F2B00F08C800CE1A3F51873AA
:10490000032B00F20881B6E097F84C30002B1AD048
:104910007B6A5B8803F00F03002B0ADDFB8D7A6A4C
:104920005288134403F00F03002B02D1BB6C0233F7
:10493000BB647B6A5B8803F0F0031B115B00BA6CFD
:104940001344BB64E9E0182340E100BFD125FF1FF9
:1049500000237B827B6A5B881A469E4B33F81230B9
:104960001A46FB8D03F00F0302FA03F33B827B69C7
:104970001B887B82FB8D03F00F03002B02D1BB6CE5
:1049800000221A80BB6C1A88BB6C1A8097F84C30D6
:10499000002B0AD0BB6C1A88798A3B8A0B409BB2E9
:1049A00013439AB2BB6C1A8013E0BB6C1B8899B29C
:1049B0007A8A3B8A13409BB21A46FB8D03F00F03A1
:1049C00042FA03F39BB20A4613439BB29AB2BB6C02
:1049D0001A80BB6C1A88BB6C1A80FB8D7A6A52886D
:1049E000134403F00F03002B03D1BB6C0233BB64F1
:1049F00093E092E0FB8D03F00F03002B01D0052321
:104A0000E4E07B691A88BB6C1A80BB6C0233BB6420
:104A100083E0FB8D03F00F03002B01D00523D5E0CD
:104A20007B691A88BB6C1A80BB6C02337A69528826
:104A30001A80BB6C0433BB646FE0FB8D03F00F0383
:104A4000002B01D00523C1E07B691A88BB6C1A805A
:104A5000BB6C02337A6952881A80BB6C04337A6962
:104A600092881A80BB6C06337A69D2881A80BB6C34
:104A70000833BB6451E0FB8D03F00F03002B01D022
:104A80000523A3E07B6A5B880733DB10B86C796988
:104A90001A4605F095F97B6A5B8823F00F030F3304
:104AA0001B115B00BA6C1344BB647B6A5B8803F028
:104AB0000F03002B06D0BB6C1B88DBB29AB2BB6C19
:104AC0001A802AE029E0FB8D03F00F03002B01D0B0
:104AD00005237BE07B6A5B880733DB10B86C796960
:104AE0001A4605F06DF97B6A5B8823F00F030F33DC
:104AF0001B115B00BA6C1344BB647B6A5B8803F0D8
:104B00000F03002B06D0BB6C1B88DBB29AB2BB6CC8
:104B10001A8002E001E0182358E0012387F83130C1
:104B200044E043E0002387F82B30FB8D03F00F03B4
:104B3000002B02D1BB6C00221A807B6A5B8803F0D9
:104B40000F03002B0DDDFB8D7A6A5288134403F0AE
:104B50000F03002B05D1BB6C0233BB64BB6C00227E
:104B60001A80002387F82B300AE0BB6C0233BB6449
:104B7000BB6C00221A8097F82B30013387F82B305A
:104B800097F82B207B6A5B8803F0F0031B119A4295
:104B9000EBDB7B6A9B8803F00703002B03D1062322
:104BA00087F8303002E01A2387F83030FB8E01336B
:104BB000FB86FA8E7B8E9A427FF6ECAD97F8313009
:104BC000002B02D197F8303000E0002318463C3724
:104BD000BD4690BD2CA8020890B591B002AFBA6056
:104BE0007B600346FB810B467B737B7BFB867B688C
:104BF0009B8903F470631B1287F823300023BB8664
:104C00007B689B89DBB23B84002387F833307B7B56
:104C10003B8697F82330072B28D07B689B691B883D
:104C2000DBB2BB86BB8E002B20D1FB8941F60F4245
:104C3000934204D9FB8941F62F42934214D9FB8950
:104C4000B3F5B05F03D3FB89B3F5C05F0CD3FB8929
:104C5000B3F5D05F03D3FB89B3F5E05F04D3FB89E1
:104C60004FF23002934201D13B8CBB8697F84C3017
:104C7000002B12D097F82330072B01D105230FE327
:104C80007B7B002B06D1BB68002B03D0BB6C1B8841
:104C9000DBB2BB86BB8E3B862AE07B7B9BB2BA8EA7
:104CA0009A4201D21123FBE27B7B78681946FFF719
:104CB000FBFAF861FB699B8803F038039B10DBB2B9
:104CC0001A46A24B1B7803F00F031340002B0FD1A1
:104CD000FB699B8803F03803002B07D1FB699B8895
:104CE000002B01D10523DBE20723D9E21A23D7E207
:104CF0007B7B002B29D0FB8941F60F42934204D9DC
:104D0000FB8941F62F42934214D9FB89B3F5B05F7A
:104D100003D3FB89B3F5C05F0CD3FB89B3F5D05F38
:104D200003D3FB89B3F5E05F04D3FB894FF2300274
:104D300093420AD17B689B691B88DBB27B837B8BA8
:104D4000002B02D0012387F833307B681B6A002BCD
:104D50000DD07B681C6AF9897A7B97F84C300093F8
:104D600008461146BA68BB6CA047034698E2002388
:104D700087F82F30072387F82E30BB68002B01D12E
:104D800000238DE27B7BFB867DE27B689B69BB62B7
:104D900000233B83FB8EDBB278681946FFF784FA69
:104DA000F861FB8EDBB218467968FFF7B5FA034667
:104DB0003B83FB699B8803F038039B10DBB21A46E8
:104DC000624B1B7803F00F031340002B00F0358279
:104DD000FB8E002B06D03B8B1B099BB25B00BA6A93
:104DE0001344BB627B7B9BB2FA8E9A420AD097F83F
:104DF0004C30002B00F044827B7B9BB2FA8E9A42AF
:104E0000C0F03E82FB8E002B15D197F82330072B84
:104E100011D0BB6C1B88FB74FB7C9BB23A8C9A4212
:104E200001D213233CE2BB6C1A88BB6A1A80BB6CAC
:104E30000233BB64FDE1FB691B88FB84FB691B88B3
:104E4000B3F5E06F15D3FB695B88082B04D8FB69C9
:104E50005B882F33FB840CE0FB695B88102B02D14D
:104E60000623FB8405E0FB695B88202B01D1072327
:104E7000FB84FB8C112B00F07B81112B1EDC052B9E
:104E800066D0052B0DDC022B04DC012B60DA002B35
:104E90003BD0CCE1032B00F0B580042B00F0408127
:104EA000C5E1082B03DC072B80F23A81AAE0092B2D
:104EB00000F07C810B2B00F3BA819DE12D2B47D0B4
:104EC0002D2B11DC1E2B43D01E2B06DC152B00F0E6
:104ED0004F811B2B00F04C81A9E11F2B00F0928029
:104EE000202B00F01D81A2E1372B08DC302B2FDABC
:104EF0002E2B00F087802F2B00F0128197E1A3F575
:104F00001873032B00F2938176E197F84C30002B55
:104F10001AD0FB695B8803F00F03002B0ADD3B8B83
:104F2000FA695288134403F00F03002B02D1BB6CC3
:104F30000233BB64FB695B8803F0F0031B115B0069
:104F4000BA6C1344BB6474E11823A9E1D125FF1F97
:104F50000023BB84FB695B881A46A24B33F81230EE
:104F60001A463B8B03F00F0302FA03F3FB82BB6A82
:104F70001B88BB84FB8ADB439AB2BB8C13409BB279
:104F8000BB8497F84C30002B08D0BB6C1A88FB8A86
:104F900013409AB2BB8C1343BB8423E0BB6C1B88C9
:104FA0001A46FB695B8819468E4B33F81130DB4398
:104FB0001340002B01D0122372E1BB6C1A88FB69ED
:104FC0005B881946874B33F8113013409BB21A4661
:104FD0003B8B03F00F0302FA03F39AB2BB8C13432B
:104FE0009BB2BB84BB6ABA8C1A803B8BFA6952882D
:104FF000134403F00F03002B03D1BB6C0233BB64DB
:1050000017E116E13B8B03F00F03002B01D00523C2
:1050100046E1BB6C1B88BB8297F83330002B06D06F
:10502000BB6A1B88BA8A9A4201D01C2338E1FB89EB
:1050300041F60F42934219D9FB8941F62F42934220
:1050400014D8BB8AB3F5B05F03D3BB8AB3F5C05F96
:105050000CD3BB8AB3F5D05F03D3BB8AB3F5E05F53
:1050600004D3BB8A002B01D0122319E1FB8941F63E
:105070003242934204D0FB8941F63342934248D1F5
:10508000FB8E012B17D1BB6A1B88BA8A9A420FD0BC
:10509000FA89BB8A10461946FFF7F0F9034687F8EC
:1050A0002E3097F82E30002B02D097F82E30F7E0F4
:1050B0004D4B01221A70FB8E082B2AD14B4B00223C
:1050C0005A614A4B4A4A1A61484B00225A60494B7E
:1050D00000225A61474B464A1A61464B00225A60E9
:1050E000BB8A03F00203002B13D0404B00225A85E9
:1050F0003E4B00221A853D4B002283F840203D4B59
:1051000000225A853B4B00221A853A4B002283F835
:105110004020BB6ABA8A1A80BB6C0233BB6488E049
:105120003B8B03F00F03002B01D00523B8E097F869
:105130003330002B0FD0BB6A1A88BB6C1B889A4295
:1051400007D1BB6A02331A88BB6C02331B889A42B0
:1051500001D01C23A4E0BB6C1A88BB6A1A80BB6A0E
:105160000233BA6C52881A80BB6C0433BB6460E0B3
:105170003B8B03F00F03002B01D0052390E0BB6CA9
:105180001A88BB6A1A80BB6A0233BA6C52881A80CA
:10519000BB6A0433BA6C92881A80BB6A0633BA6C55
:1051A000D2881A80BB6C0833BB6442E03B8B03F0AF
:1051B0000F03002B01D0052372E0FB695B880733E6
:1051C000DB10B86AB96C1A4604F0FAFDFB695B881B
:1051D00023F00F030F331B115B00BA6C1344BB6445
:1051E00027E000BF2CA802083427FF1FF026FF1F6E
:1051F00048E80100AC26FF1F3B8B03F00F03002B98
:1052000001D005234CE0FB695B880733DB10B86AEB
:10521000B96C1A4604F0D4FDFB695B8823F00F03D8
:105220000F331B115B00BA6C1344BB6401E01823FD
:1052300036E0012387F82F3022E0FB8E002B03D1CC
:10524000BB6C0233BB6418E0FB695B8803F00F039F
:10525000002B0ADD3B8BFA695288134403F00F03DD
:10526000002B02D1BB6C0233BB64FB695B881B095A
:105270009BB25B00BA6C1344BB64182387F82E30D2
:10528000FB8E0133FB86FA8E3B8E9A427FF67DAD14
:1052900097F82F30002B02D197F82E3000E0002332
:1052A00018463C37BD4690BDB0B588B002AF7860B7
:1052B0000023FB7500233B617B681B7A03F010031E
:1052C000864A1278934202D10123FB75BBE0844BDE
:1052D0001B88093BFB817B681B7A03F01003DAB261
:1052E0007E4B1A707F4B1B68002B00F0AA807E4B10
:1052F0001A687E4B1B68D31A3B617B681B7A03F0EC
:105300000103002B2CD0FA893B699A4225D37B6894
:105310001B88BB81BB89033B1A463B699A420CD36D
:105320007B681B7A03F00E035B109BB2C3F107038B
:105330009BB21A463B699A4208D03B69072B09D9B0
:10534000BB89033B1A463B699A4203D1684B002252
:105350001A7011E00E23FB750EE00E23FB750BE0B7
:10536000634B01221A70FA893B699A4202D30E23D9
:10537000FB7501E0FB893B61FB7D002B63D1594B41
:105380001A685A4B1B681A447B6809331046194641
:105390003A6904F015FD564B1B78002B53D1554B41
:1053A0001888554B1978504B1D68544B1C684D4B51
:1053B0001A68534B1B78009201932A462346FFF745
:1053C0000BFC0346FB75FB7DFF2B31D14D4B0222BD
:1053D0001A704B4B1B78002B14BF01230023DAB249
:1053E000494B1A70444B1A78484B1A70414B1A8833
:1053F000474B1A803C4B1B68464A1360394B1B686D
:10540000454A13603D4B1B681B6A444A1360444B7A
:1054100001221A70434A7B681360354B00221A70D0
:10542000414B00221A70314B00221A60FF2351E0D9
:105430002C4B1B68184604F0ABFC2A4B00221A6068
:1054400001E00323FB75FB7D002B2DD17B680A2235
:105450001A807B68DB88C3F30B039AB27B68DA801F
:105460007B68DB8843F440539AB27B68DA801B4B3D
:105470001B78002B03D07B6830221A7202E07B6815
:1054800020221A721A4B1B78012B06D1174B1A686F
:105490003B691344154A13601BE0144B00221A6049
:1054A000214B00221A7014E0114B00221A701E4B7F
:1054B00000221A700B4B1B68002B07D0094B1B688E
:1054C000184604F065FC074B00221A60074B0022C7
:1054D0001A60FB7D18461837BD46B0BD5627FF1F22
:1054E000A226FF1F6827FF1F4C27FF1F4427FF1F0F
:1054F0004927FF1F6C27FF1F8427FF1F8027FF1FDF
:105500004827FF1F5427FF1F5527FF1F8827FF1F0E
:105510008627FF1F6427FF1F4027FF1F5027FF1FFD
:105520004B15FF1F6027FF1F5727FF1F80B586B051
:1055300000AF78600023FB757B68FB607B681B7A9B
:1055400003F010034C4A1278934202D10123FB75F9
:105550008CE000233B61494B1B88093B7B817B68C6
:105560001B7A03F01003DAB2434B1A707A89444B6A
:105570001B681A44434B1B689A4209D9414B1A686D
:105580003F4B1B68D31A3B613F4B00221A7004E06B
:105590007B893B613C4B01221A70FB6803F10901D6
:1055A0003A4B1A68364B1B681344084619463A6949
:1055B00004F006FCFB68DB88C3F30B039AB2FB68BC
:1055C000DA80FB68DB8843F440539AB2FB68DA80E8
:1055D000FB6800221A722C4B1B78002B08D0FB684A
:1055E0001A7A254B1B781343DAB2FB681A720AE069
:1055F000FB681A7A204B1B781343DBB243F001039C
:10560000DAB2FB681A723B69062B10D8FB680A22D3
:105610001A80FB681A7A3B69DBB2C3F10703DBB27D
:105620005B00DBB21343DAB2FB681A7205E03B6938
:105630009BB203339AB2FB681A80134B1B78012B81
:1056400006D10F4B1A683B6913440D4A13600DE0F5
:105650000E4B1B68184604F09BFB0C4B00221A6093
:10566000074B00221A600A4B00221A70FB7D184675
:105670001837BD4680BD00BF5627FF1F9026FF1F6D
:105680004427FF1F4C27FF1F4927FF1F6827FF1FC5
:105690005727FF1F90B583B000AF04460846114658
:1056A0001A462346FB710346BB710B467B711346BA
:1056B0007B80BB79602B05D0BB79002B02D0FB69C6
:1056C00000221A72FB79002B6CD1FB69DB88C3F3D3
:1056D0000B039AB2FB69DA80FB69DB8843F4405321
:1056E0009AB2FB69DA80BB79402B3FD1BB69042BAE
:1056F00018D8BB69002B15D0FB690A221A80FB69F8
:105700001A7ABB69DBB2C3F104039B00D9B27B797F
:105710000B43DBB21343DBB243F04303DAB2FB6962
:105720001A725DE07A88BB699A4205D27B880A3397
:105730009AB2FB691A8005E0BB699BB20A339AB240
:10574000FB691A80BB699AB2FB699A81BB691B0C21
:105750009AB2FB69DA81FB691A7A7B791343DBB26F
:1057600043F04103DAB2FB691A7239E0BB79002BCE
:105770000AD1FB690A221A80FB691B7A43F02003D5
:10578000DAB2FB691A722BE0BB79602B28D0FB6977
:105790000A221A80FB691B7A43F06003DAB2FB69C4
:1057A0001A721DE0FB690A221A80FB69DB88C3F3C9
:1057B0000B039AB2FB69DA80FB69DB8843F4005380
:1057C0009AB2FB69DA80FB691B7A63F07F03DAB275
